{
  "contractName": "TokenGating",
  "abi": [
    {
      "inputs": [],
      "stateMutability": "nonpayable",
      "type": "constructor"
    },
    {
      "anonymous": false,
      "inputs": [
        {
          "indexed": true,
          "internalType": "address",
          "name": "owner",
          "type": "address"
        },
        {
          "indexed": true,
          "internalType": "address",
          "name": "approved",
          "type": "address"
        },
        {
          "indexed": true,
          "internalType": "uint256",
          "name": "tokenId",
          "type": "uint256"
        }
      ],
      "name": "Approval",
      "type": "event"
    },
    {
      "anonymous": false,
      "inputs": [
        {
          "indexed": true,
          "internalType": "address",
          "name": "owner",
          "type": "address"
        },
        {
          "indexed": true,
          "internalType": "address",
          "name": "operator",
          "type": "address"
        },
        {
          "indexed": false,
          "internalType": "bool",
          "name": "approved",
          "type": "bool"
        }
      ],
      "name": "ApprovalForAll",
      "type": "event"
    },
    {
      "anonymous": false,
      "inputs": [
        {
          "indexed": true,
          "internalType": "address",
          "name": "from",
          "type": "address"
        },
        {
          "indexed": true,
          "internalType": "address",
          "name": "to",
          "type": "address"
        },
        {
          "indexed": true,
          "internalType": "uint256",
          "name": "tokenId",
          "type": "uint256"
        }
      ],
      "name": "Transfer",
      "type": "event"
    },
    {
      "inputs": [
        {
          "internalType": "address",
          "name": "to",
          "type": "address"
        },
        {
          "internalType": "uint256",
          "name": "tokenId",
          "type": "uint256"
        }
      ],
      "name": "approve",
      "outputs": [],
      "stateMutability": "nonpayable",
      "type": "function"
    },
    {
      "inputs": [
        {
          "internalType": "address",
          "name": "owner",
          "type": "address"
        }
      ],
      "name": "balanceOf",
      "outputs": [
        {
          "internalType": "uint256",
          "name": "",
          "type": "uint256"
        }
      ],
      "stateMutability": "view",
      "type": "function"
    },
    {
      "inputs": [
        {
          "internalType": "uint256",
          "name": "tokenId",
          "type": "uint256"
        }
      ],
      "name": "getApproved",
      "outputs": [
        {
          "internalType": "address",
          "name": "",
          "type": "address"
        }
      ],
      "stateMutability": "view",
      "type": "function"
    },
    {
      "inputs": [
        {
          "internalType": "address",
          "name": "owner",
          "type": "address"
        },
        {
          "internalType": "address",
          "name": "operator",
          "type": "address"
        }
      ],
      "name": "isApprovedForAll",
      "outputs": [
        {
          "internalType": "bool",
          "name": "",
          "type": "bool"
        }
      ],
      "stateMutability": "view",
      "type": "function"
    },
    {
      "inputs": [],
      "name": "name",
      "outputs": [
        {
          "internalType": "string",
          "name": "",
          "type": "string"
        }
      ],
      "stateMutability": "view",
      "type": "function"
    },
    {
      "inputs": [],
      "name": "owner",
      "outputs": [
        {
          "internalType": "address",
          "name": "",
          "type": "address"
        }
      ],
      "stateMutability": "view",
      "type": "function"
    },
    {
      "inputs": [
        {
          "internalType": "uint256",
          "name": "tokenId",
          "type": "uint256"
        }
      ],
      "name": "ownerOf",
      "outputs": [
        {
          "internalType": "address",
          "name": "",
          "type": "address"
        }
      ],
      "stateMutability": "view",
      "type": "function"
    },
    {
      "inputs": [
        {
          "internalType": "address",
          "name": "from",
          "type": "address"
        },
        {
          "internalType": "address",
          "name": "to",
          "type": "address"
        },
        {
          "internalType": "uint256",
          "name": "tokenId",
          "type": "uint256"
        }
      ],
      "name": "safeTransferFrom",
      "outputs": [],
      "stateMutability": "nonpayable",
      "type": "function"
    },
    {
      "inputs": [
        {
          "internalType": "address",
          "name": "from",
          "type": "address"
        },
        {
          "internalType": "address",
          "name": "to",
          "type": "address"
        },
        {
          "internalType": "uint256",
          "name": "tokenId",
          "type": "uint256"
        },
        {
          "internalType": "bytes",
          "name": "data",
          "type": "bytes"
        }
      ],
      "name": "safeTransferFrom",
      "outputs": [],
      "stateMutability": "nonpayable",
      "type": "function"
    },
    {
      "inputs": [
        {
          "internalType": "address",
          "name": "operator",
          "type": "address"
        },
        {
          "internalType": "bool",
          "name": "approved",
          "type": "bool"
        }
      ],
      "name": "setApprovalForAll",
      "outputs": [],
      "stateMutability": "nonpayable",
      "type": "function"
    },
    {
      "inputs": [
        {
          "internalType": "bytes4",
          "name": "interfaceId",
          "type": "bytes4"
        }
      ],
      "name": "supportsInterface",
      "outputs": [
        {
          "internalType": "bool",
          "name": "",
          "type": "bool"
        }
      ],
      "stateMutability": "view",
      "type": "function"
    },
    {
      "inputs": [],
      "name": "symbol",
      "outputs": [
        {
          "internalType": "string",
          "name": "",
          "type": "string"
        }
      ],
      "stateMutability": "view",
      "type": "function"
    },
    {
      "inputs": [],
      "name": "tokenId",
      "outputs": [
        {
          "internalType": "uint256",
          "name": "_value",
          "type": "uint256"
        }
      ],
      "stateMutability": "view",
      "type": "function"
    },
    {
      "inputs": [
        {
          "internalType": "uint256",
          "name": "tokenId",
          "type": "uint256"
        }
      ],
      "name": "tokenURI",
      "outputs": [
        {
          "internalType": "string",
          "name": "",
          "type": "string"
        }
      ],
      "stateMutability": "view",
      "type": "function"
    },
    {
      "inputs": [
        {
          "internalType": "address",
          "name": "from",
          "type": "address"
        },
        {
          "internalType": "address",
          "name": "to",
          "type": "address"
        },
        {
          "internalType": "uint256",
          "name": "tokenId",
          "type": "uint256"
        }
      ],
      "name": "transferFrom",
      "outputs": [],
      "stateMutability": "nonpayable",
      "type": "function"
    },
    {
      "inputs": [
        {
          "internalType": "string",
          "name": "_videoName",
          "type": "string"
        },
        {
          "internalType": "string",
          "name": "_videoUrl",
          "type": "string"
        },
        {
          "internalType": "uint8",
          "name": "_videoPrice",
          "type": "uint8"
        },
        {
          "internalType": "uint256",
          "name": "_moduleNumber",
          "type": "uint256"
        },
        {
          "internalType": "string",
          "name": "_moduleName",
          "type": "string"
        },
        {
          "internalType": "string",
          "name": "_courseName",
          "type": "string"
        }
      ],
      "name": "createVideoNFT",
      "outputs": [
        {
          "internalType": "uint256",
          "name": "",
          "type": "uint256"
        }
      ],
      "stateMutability": "payable",
      "type": "function"
    }
  ],
  "bytecode": "0x608060405230600860006101000a81548173ffffffffffffffffffffffffffffffffffffffff021916908373ffffffffffffffffffffffffffffffffffffffff1602179055503480156200005257600080fd5b506040518060400160405280600881526020017f49646561204e46540000000000000000000000000000000000000000000000008152506040518060400160405280600381526020017f44495000000000000000000000000000000000000000000000000000000000008152508160009081620000d09190620003a6565b508060019081620000e29190620003a6565b50505033600960006101000a81548173ffffffffffffffffffffffffffffffffffffffff021916908373ffffffffffffffffffffffffffffffffffffffff1602179055506200048d565b600081519050919050565b7f4e487b7100000000000000000000000000000000000000000000000000000000600052604160045260246000fd5b7f4e487b7100000000000000000000000000000000000000000000000000000000600052602260045260246000fd5b60006002820490506001821680620001ae57607f821691505b602082108103620001c457620001c362000166565b5b50919050565b60008190508160005260206000209050919050565b60006020601f8301049050919050565b600082821b905092915050565b6000600883026200022e7fffffffffffffffffffffffffffffffffffffffffffffffffffffffffffffffff82620001ef565b6200023a8683620001ef565b95508019841693508086168417925050509392505050565b6000819050919050565b6000819050919050565b600062000287620002816200027b8462000252565b6200025c565b62000252565b9050919050565b6000819050919050565b620002a38362000266565b620002bb620002b2826200028e565b848454620001fc565b825550505050565b600090565b620002d2620002c3565b620002df81848462000298565b505050565b5b818110156200030757620002fb600082620002c8565b600181019050620002e5565b5050565b601f82111562000356576200032081620001ca565b6200032b84620001df565b810160208510156200033b578190505b620003536200034a85620001df565b830182620002e4565b50505b505050565b600082821c905092915050565b60006200037b600019846008026200035b565b1980831691505092915050565b600062000396838362000368565b9150826002028217905092915050565b620003b1826200012c565b67ffffffffffffffff811115620003cd57620003cc62000137565b5b620003d9825462000195565b620003e68282856200030b565b600060209050601f8311600181146200041e576000841562000409578287015190505b62000415858262000388565b86555062000485565b601f1984166200042e86620001ca565b60005b82811015620004585784890151825560018201915060208501945060208101905062000431565b8683101562000478578489015162000474601f89168262000368565b8355505b6001600288020188555050505b505050505050565b6135dc806200049d6000396000f3fe6080604052600436106100f35760003560e01c80636352211e1161008a578063a22cb46511610059578063a22cb46514610343578063b88d4fde1461036c578063c87b56dd14610395578063e985e9c5146103d2576100f3565b80636352211e1461027357806370a08231146102b05780638da5cb5b146102ed57806395d89b4114610318576100f3565b8063095ea7b3116100c6578063095ea7b3146101cd57806317d70f7c146101f657806323b872dd1461022157806342842e0e1461024a576100f3565b806301ffc9a7146100f857806306fdde031461013557806307582f4514610160578063081812fc14610190575b600080fd5b34801561010457600080fd5b5061011f600480360381019061011a9190611e0f565b61040f565b60405161012c9190611e57565b60405180910390f35b34801561014157600080fd5b5061014a6104f1565b6040516101579190611f0b565b60405180910390f35b61017a600480360381019061017591906120d1565b610583565b60405161018791906121dd565b60405180910390f35b34801561019c57600080fd5b506101b760048036038101906101b291906121f8565b6105f8565b6040516101c49190612266565b60405180910390f35b3480156101d957600080fd5b506101f460048036038101906101ef91906122ad565b61063e565b005b34801561020257600080fd5b5061020b610755565b60405161021891906121dd565b60405180910390f35b34801561022d57600080fd5b50610248600480360381019061024391906122ed565b610761565b005b34801561025657600080fd5b50610271600480360381019061026c91906122ed565b6107c1565b005b34801561027f57600080fd5b5061029a600480360381019061029591906121f8565b6107e1565b6040516102a79190612266565b60405180910390f35b3480156102bc57600080fd5b506102d760048036038101906102d29190612340565b610867565b6040516102e491906121dd565b60405180910390f35b3480156102f957600080fd5b5061030261091e565b60405161030f9190612266565b60405180910390f35b34801561032457600080fd5b5061032d610944565b60405161033a9190611f0b565b60405180910390f35b34801561034f57600080fd5b5061036a60048036038101906103659190612399565b6109d6565b005b34801561037857600080fd5b50610393600480360381019061038e919061247a565b6109ec565b005b3480156103a157600080fd5b506103bc60048036038101906103b791906121f8565b610a4e565b6040516103c99190611f0b565b60405180910390f35b3480156103de57600080fd5b506103f960048036038101906103f491906124fd565b610b60565b6040516104069190611e57565b60405180910390f35b60007f80ac58cd000000000000000000000000000000000000000000000000000000007bffffffffffffffffffffffffffffffffffffffffffffffffffffffff1916827bffffffffffffffffffffffffffffffffffffffffffffffffffffffff191614806104da57507f5b5e139f000000000000000000000000000000000000000000000000000000007bffffffffffffffffffffffffffffffffffffffffffffffffffffffff1916827bffffffffffffffffffffffffffffffffffffffffffffffffffffffff1916145b806104ea57506104e982610bf4565b5b9050919050565b6060600080546105009061256c565b80601f016020809104026020016040519081016040528092919081815260200182805461052c9061256c565b80156105795780601f1061054e57610100808354040283529160200191610579565b820191906000526020600020905b81548152906001019060200180831161055c57829003601f168201915b5050505050905090565b600061058f6007610c5e565b600061059b6007610c74565b90506105a73382610c82565b6105be816105b98a8a8a8a8a8a610ca0565b610d05565b85600a600083815260200190815260200160002060006101000a81548160ff021916908360ff160217905550809150509695505050505050565b600061060382610d72565b6004600083815260200190815260200160002060009054906101000a900473ffffffffffffffffffffffffffffffffffffffff169050919050565b6000610649826107e1565b90508073ffffffffffffffffffffffffffffffffffffffff168373ffffffffffffffffffffffffffffffffffffffff16036106b9576040517f08c379a00000000000000000000000000000000000000000000000000000000081526004016106b09061260f565b60405180910390fd5b8073ffffffffffffffffffffffffffffffffffffffff166106d8610dbd565b73ffffffffffffffffffffffffffffffffffffffff161480610707575061070681610701610dbd565b610b60565b5b610746576040517f08c379a000000000000000000000000000000000000000000000000000000000815260040161073d906126a1565b60405180910390fd5b6107508383610dc5565b505050565b60078060000154905081565b61077261076c610dbd565b82610e7e565b6107b1576040517f08c379a00000000000000000000000000000000000000000000000000000000081526004016107a890612733565b60405180910390fd5b6107bc838383610f13565b505050565b6107dc838383604051806020016040528060008152506109ec565b505050565b6000806107ed8361120c565b9050600073ffffffffffffffffffffffffffffffffffffffff168173ffffffffffffffffffffffffffffffffffffffff160361085e576040517f08c379a00000000000000000000000000000000000000000000000000000000081526004016108559061279f565b60405180910390fd5b80915050919050565b60008073ffffffffffffffffffffffffffffffffffffffff168273ffffffffffffffffffffffffffffffffffffffff16036108d7576040517f08c379a00000000000000000000000000000000000000000000000000000000081526004016108ce90612831565b60405180910390fd5b600360008373ffffffffffffffffffffffffffffffffffffffff1673ffffffffffffffffffffffffffffffffffffffff168152602001908152602001600020549050919050565b600960009054906101000a900473ffffffffffffffffffffffffffffffffffffffff1681565b6060600180546109539061256c565b80601f016020809104026020016040519081016040528092919081815260200182805461097f9061256c565b80156109cc5780601f106109a1576101008083540402835291602001916109cc565b820191906000526020600020905b8154815290600101906020018083116109af57829003601f168201915b5050505050905090565b6109e86109e1610dbd565b8383611249565b5050565b6109fd6109f7610dbd565b83610e7e565b610a3c576040517f08c379a0000000000000000000000000000000000000000000000000000000008152600401610a3390612733565b60405180910390fd5b610a48848484846113b5565b50505050565b6060610a5982610d72565b6000600660008481526020019081526020016000208054610a799061256c565b80601f0160208091040260200160405190810160405280929190818152602001828054610aa59061256c565b8015610af25780601f10610ac757610100808354040283529160200191610af2565b820191906000526020600020905b815481529060010190602001808311610ad557829003601f168201915b505050505090506000610b03611411565b90506000815103610b18578192505050610b5b565b600082511115610b4d578082604051602001610b3592919061288d565b60405160208183030381529060405292505050610b5b565b610b5684611428565b925050505b919050565b6000600560008473ffffffffffffffffffffffffffffffffffffffff1673ffffffffffffffffffffffffffffffffffffffff16815260200190815260200160002060008373ffffffffffffffffffffffffffffffffffffffff1673ffffffffffffffffffffffffffffffffffffffff16815260200190815260200160002060009054906101000a900460ff16905092915050565b60007f01ffc9a7000000000000000000000000000000000000000000000000000000007bffffffffffffffffffffffffffffffffffffffffffffffffffffffff1916827bffffffffffffffffffffffffffffffffffffffffffffffffffffffff1916149050919050565b6001816000016000828254019250508190555050565b600081600001549050919050565b610c9c828260405180602001604052806000815250611490565b5050565b60606000878787878787604051602001610cbf96959493929190612bb4565b6040516020818303038152906040529050610cd9816114eb565b604051602001610ce99190612ce4565b6040516020818303038152906040529150509695505050505050565b610d0e8261164e565b610d4d576040517f08c379a0000000000000000000000000000000000000000000000000000000008152600401610d4490612d78565b60405180910390fd5b80600660008481526020019081526020016000209081610d6d9190612f44565b505050565b610d7b8161164e565b610dba576040517f08c379a0000000000000000000000000000000000000000000000000000000008152600401610db19061279f565b60405180910390fd5b50565b600033905090565b816004600083815260200190815260200160002060006101000a81548173ffffffffffffffffffffffffffffffffffffffff021916908373ffffffffffffffffffffffffffffffffffffffff160217905550808273ffffffffffffffffffffffffffffffffffffffff16610e38836107e1565b73ffffffffffffffffffffffffffffffffffffffff167f8c5be1e5ebec7d5bd14f71427d1e84f3dd0314c0f7b2291e5b200ac8c7c3b92560405160405180910390a45050565b600080610e8a836107e1565b90508073ffffffffffffffffffffffffffffffffffffffff168473ffffffffffffffffffffffffffffffffffffffff161480610ecc5750610ecb8185610b60565b5b80610f0a57508373ffffffffffffffffffffffffffffffffffffffff16610ef2846105f8565b73ffffffffffffffffffffffffffffffffffffffff16145b91505092915050565b8273ffffffffffffffffffffffffffffffffffffffff16610f33826107e1565b73ffffffffffffffffffffffffffffffffffffffff1614610f89576040517f08c379a0000000000000000000000000000000000000000000000000000000008152600401610f8090613088565b60405180910390fd5b600073ffffffffffffffffffffffffffffffffffffffff168273ffffffffffffffffffffffffffffffffffffffff1603610ff8576040517f08c379a0000000000000000000000000000000000000000000000000000000008152600401610fef9061311a565b60405180910390fd5b611005838383600161168f565b8273ffffffffffffffffffffffffffffffffffffffff16611025826107e1565b73ffffffffffffffffffffffffffffffffffffffff161461107b576040517f08c379a000000000000000000000000000000000000000000000000000000000815260040161107290613088565b60405180910390fd5b6004600082815260200190815260200160002060006101000a81549073ffffffffffffffffffffffffffffffffffffffff02191690556001600360008573ffffffffffffffffffffffffffffffffffffffff1673ffffffffffffffffffffffffffffffffffffffff168152602001908152602001600020600082825403925050819055506001600360008473ffffffffffffffffffffffffffffffffffffffff1673ffffffffffffffffffffffffffffffffffffffff16815260200190815260200160002060008282540192505081905550816002600083815260200190815260200160002060006101000a81548173ffffffffffffffffffffffffffffffffffffffff021916908373ffffffffffffffffffffffffffffffffffffffff160217905550808273ffffffffffffffffffffffffffffffffffffffff168473ffffffffffffffffffffffffffffffffffffffff167fddf252ad1be2c89b69c2b068fc378daa952ba7f163c4a11628f55a4df523b3ef60405160405180910390a461120783838360016117b5565b505050565b60006002600083815260200190815260200160002060009054906101000a900473ffffffffffffffffffffffffffffffffffffffff169050919050565b8173ffffffffffffffffffffffffffffffffffffffff168373ffffffffffffffffffffffffffffffffffffffff16036112b7576040517f08c379a00000000000000000000000000000000000000000000000000000000081526004016112ae90613186565b60405180910390fd5b80600560008573ffffffffffffffffffffffffffffffffffffffff1673ffffffffffffffffffffffffffffffffffffffff16815260200190815260200160002060008473ffffffffffffffffffffffffffffffffffffffff1673ffffffffffffffffffffffffffffffffffffffff16815260200190815260200160002060006101000a81548160ff0219169083151502179055508173ffffffffffffffffffffffffffffffffffffffff168373ffffffffffffffffffffffffffffffffffffffff167f17307eab39ab6107e8899845ad3d59bd9653f200f220920489ca2b5937696c31836040516113a89190611e57565b60405180910390a3505050565b6113c0848484610f13565b6113cc848484846117bb565b61140b576040517f08c379a000000000000000000000000000000000000000000000000000000000815260040161140290613218565b60405180910390fd5b50505050565b606060405180602001604052806000815250905090565b606061143382610d72565b600061143d611411565b9050600081511161145d5760405180602001604052806000815250611488565b8061146784611942565b60405160200161147892919061288d565b6040516020818303038152906040525b915050919050565b61149a8383611a10565b6114a760008484846117bb565b6114e6576040517f08c379a00000000000000000000000000000000000000000000000000000000081526004016114dd90613218565b60405180910390fd5b505050565b6060600082510361150d57604051806020016040528060008152509050611649565b6000604051806060016040528060408152602001613567604091399050600060036002855161153c9190613267565b61154691906132ec565b6004611552919061331d565b67ffffffffffffffff81111561156b5761156a611f37565b5b6040519080825280601f01601f19166020018201604052801561159d5781602001600182028036833780820191505090505b509050600182016020820185865187015b80821015611609576003820191508151603f8160121c168501518453600184019350603f81600c1c168501518453600184019350603f8160061c168501518453600184019350603f81168501518453600184019350506115ae565b5050600386510660018114611625576002811461163857611640565b603d6001830353603d6002830353611640565b603d60018303535b50505080925050505b919050565b60008073ffffffffffffffffffffffffffffffffffffffff166116708361120c565b73ffffffffffffffffffffffffffffffffffffffff1614159050919050565b60018111156117af57600073ffffffffffffffffffffffffffffffffffffffff168473ffffffffffffffffffffffffffffffffffffffff16146117235780600360008673ffffffffffffffffffffffffffffffffffffffff1673ffffffffffffffffffffffffffffffffffffffff168152602001908152602001600020600082825461171b9190613377565b925050819055505b600073ffffffffffffffffffffffffffffffffffffffff168373ffffffffffffffffffffffffffffffffffffffff16146117ae5780600360008573ffffffffffffffffffffffffffffffffffffffff1673ffffffffffffffffffffffffffffffffffffffff16815260200190815260200160002060008282546117a69190613267565b925050819055505b5b50505050565b50505050565b60006117dc8473ffffffffffffffffffffffffffffffffffffffff16611c2d565b15611935578373ffffffffffffffffffffffffffffffffffffffff1663150b7a02611805610dbd565b8786866040518563ffffffff1660e01b81526004016118279493929190613400565b6020604051808303816000875af192505050801561186357506040513d601f19601f820116820180604052508101906118609190613461565b60015b6118e5573d8060008114611893576040519150601f19603f3d011682016040523d82523d6000602084013e611898565b606091505b5060008151036118dd576040517f08c379a00000000000000000000000000000000000000000000000000000000081526004016118d490613218565b60405180910390fd5b805181602001fd5b63150b7a0260e01b7bffffffffffffffffffffffffffffffffffffffffffffffffffffffff1916817bffffffffffffffffffffffffffffffffffffffffffffffffffffffff19161491505061193a565b600190505b949350505050565b60606000600161195184611c50565b01905060008167ffffffffffffffff8111156119705761196f611f37565b5b6040519080825280601f01601f1916602001820160405280156119a25781602001600182028036833780820191505090505b509050600082602001820190505b600115611a05578080600190039150507f3031323334353637383961626364656600000000000000000000000000000000600a86061a8153600a85816119f9576119f86132bd565b5b049450600085036119b0575b819350505050919050565b600073ffffffffffffffffffffffffffffffffffffffff168273ffffffffffffffffffffffffffffffffffffffff1603611a7f576040517f08c379a0000000000000000000000000000000000000000000000000000000008152600401611a76906134da565b60405180910390fd5b611a888161164e565b15611ac8576040517f08c379a0000000000000000000000000000000000000000000000000000000008152600401611abf90613546565b60405180910390fd5b611ad660008383600161168f565b611adf8161164e565b15611b1f576040517f08c379a0000000000000000000000000000000000000000000000000000000008152600401611b1690613546565b60405180910390fd5b6001600360008473ffffffffffffffffffffffffffffffffffffffff1673ffffffffffffffffffffffffffffffffffffffff16815260200190815260200160002060008282540192505081905550816002600083815260200190815260200160002060006101000a81548173ffffffffffffffffffffffffffffffffffffffff021916908373ffffffffffffffffffffffffffffffffffffffff160217905550808273ffffffffffffffffffffffffffffffffffffffff16600073ffffffffffffffffffffffffffffffffffffffff167fddf252ad1be2c89b69c2b068fc378daa952ba7f163c4a11628f55a4df523b3ef60405160405180910390a4611c296000838360016117b5565b5050565b6000808273ffffffffffffffffffffffffffffffffffffffff163b119050919050565b600080600090507a184f03e93ff9f4daa797ed6e38ed64bf6a1f0100000000000000008310611cae577a184f03e93ff9f4daa797ed6e38ed64bf6a1f0100000000000000008381611ca457611ca36132bd565b5b0492506040810190505b6d04ee2d6d415b85acef81000000008310611ceb576d04ee2d6d415b85acef81000000008381611ce157611ce06132bd565b5b0492506020810190505b662386f26fc100008310611d1a57662386f26fc100008381611d1057611d0f6132bd565b5b0492506010810190505b6305f5e1008310611d43576305f5e1008381611d3957611d386132bd565b5b0492506008810190505b6127108310611d68576127108381611d5e57611d5d6132bd565b5b0492506004810190505b60648310611d8b5760648381611d8157611d806132bd565b5b0492506002810190505b600a8310611d9a576001810190505b80915050919050565b6000604051905090565b600080fd5b600080fd5b60007fffffffff0000000000000000000000000000000000000000000000000000000082169050919050565b611dec81611db7565b8114611df757600080fd5b50565b600081359050611e0981611de3565b92915050565b600060208284031215611e2557611e24611dad565b5b6000611e3384828501611dfa565b91505092915050565b60008115159050919050565b611e5181611e3c565b82525050565b6000602082019050611e6c6000830184611e48565b92915050565b600081519050919050565b600082825260208201905092915050565b60005b83811015611eac578082015181840152602081019050611e91565b83811115611ebb576000848401525b50505050565b6000601f19601f8301169050919050565b6000611edd82611e72565b611ee78185611e7d565b9350611ef7818560208601611e8e565b611f0081611ec1565b840191505092915050565b60006020820190508181036000830152611f258184611ed2565b905092915050565b600080fd5b600080fd5b7f4e487b7100000000000000000000000000000000000000000000000000000000600052604160045260246000fd5b611f6f82611ec1565b810181811067ffffffffffffffff82111715611f8e57611f8d611f37565b5b80604052505050565b6000611fa1611da3565b9050611fad8282611f66565b919050565b600067ffffffffffffffff821115611fcd57611fcc611f37565b5b611fd682611ec1565b9050602081019050919050565b82818337600083830152505050565b600061200561200084611fb2565b611f97565b90508281526020810184848401111561202157612020611f32565b5b61202c848285611fe3565b509392505050565b600082601f83011261204957612048611f2d565b5b8135612059848260208601611ff2565b91505092915050565b600060ff82169050919050565b61207881612062565b811461208357600080fd5b50565b6000813590506120958161206f565b92915050565b6000819050919050565b6120ae8161209b565b81146120b957600080fd5b50565b6000813590506120cb816120a5565b92915050565b60008060008060008060c087890312156120ee576120ed611dad565b5b600087013567ffffffffffffffff81111561210c5761210b611db2565b5b61211889828a01612034565b965050602087013567ffffffffffffffff81111561213957612138611db2565b5b61214589828a01612034565b955050604061215689828a01612086565b945050606061216789828a016120bc565b935050608087013567ffffffffffffffff81111561218857612187611db2565b5b61219489828a01612034565b92505060a087013567ffffffffffffffff8111156121b5576121b4611db2565b5b6121c189828a01612034565b9150509295509295509295565b6121d78161209b565b82525050565b60006020820190506121f260008301846121ce565b92915050565b60006020828403121561220e5761220d611dad565b5b600061221c848285016120bc565b91505092915050565b600073ffffffffffffffffffffffffffffffffffffffff82169050919050565b600061225082612225565b9050919050565b61226081612245565b82525050565b600060208201905061227b6000830184612257565b92915050565b61228a81612245565b811461229557600080fd5b50565b6000813590506122a781612281565b92915050565b600080604083850312156122c4576122c3611dad565b5b60006122d285828601612298565b92505060206122e3858286016120bc565b9150509250929050565b60008060006060848603121561230657612305611dad565b5b600061231486828701612298565b935050602061232586828701612298565b9250506040612336868287016120bc565b9150509250925092565b60006020828403121561235657612355611dad565b5b600061236484828501612298565b91505092915050565b61237681611e3c565b811461238157600080fd5b50565b6000813590506123938161236d565b92915050565b600080604083850312156123b0576123af611dad565b5b60006123be85828601612298565b92505060206123cf85828601612384565b9150509250929050565b600067ffffffffffffffff8211156123f4576123f3611f37565b5b6123fd82611ec1565b9050602081019050919050565b600061241d612418846123d9565b611f97565b90508281526020810184848401111561243957612438611f32565b5b612444848285611fe3565b509392505050565b600082601f83011261246157612460611f2d565b5b813561247184826020860161240a565b91505092915050565b6000806000806080858703121561249457612493611dad565b5b60006124a287828801612298565b94505060206124b387828801612298565b93505060406124c4878288016120bc565b925050606085013567ffffffffffffffff8111156124e5576124e4611db2565b5b6124f18782880161244c565b91505092959194509250565b6000806040838503121561251457612513611dad565b5b600061252285828601612298565b925050602061253385828601612298565b9150509250929050565b7f4e487b7100000000000000000000000000000000000000000000000000000000600052602260045260246000fd5b6000600282049050600182168061258457607f821691505b6020821081036125975761259661253d565b5b50919050565b7f4552433732313a20617070726f76616c20746f2063757272656e74206f776e6560008201527f7200000000000000000000000000000000000000000000000000000000000000602082015250565b60006125f9602183611e7d565b91506126048261259d565b604082019050919050565b60006020820190508181036000830152612628816125ec565b9050919050565b7f4552433732313a20617070726f76652063616c6c6572206973206e6f7420746f60008201527f6b656e206f776e6572206f7220617070726f76656420666f7220616c6c000000602082015250565b600061268b603d83611e7d565b91506126968261262f565b604082019050919050565b600060208201905081810360008301526126ba8161267e565b9050919050565b7f4552433732313a2063616c6c6572206973206e6f7420746f6b656e206f776e6560008201527f72206f7220617070726f76656400000000000000000000000000000000000000602082015250565b600061271d602d83611e7d565b9150612728826126c1565b604082019050919050565b6000602082019050818103600083015261274c81612710565b9050919050565b7f4552433732313a20696e76616c696420746f6b656e2049440000000000000000600082015250565b6000612789601883611e7d565b915061279482612753565b602082019050919050565b600060208201905081810360008301526127b88161277c565b9050919050565b7f4552433732313a2061646472657373207a65726f206973206e6f74206120766160008201527f6c6964206f776e65720000000000000000000000000000000000000000000000602082015250565b600061281b602983611e7d565b9150612826826127bf565b604082019050919050565b6000602082019050818103600083015261284a8161280e565b9050919050565b600081905092915050565b600061286782611e72565b6128718185612851565b9350612881818560208601611e8e565b80840191505092915050565b6000612899828561285c565b91506128a5828461285c565b91508190509392505050565b7f7b00000000000000000000000000000000000000000000000000000000000000600082015250565b60006128e7600183612851565b91506128f2826128b1565b600182019050919050565b7f22766964656f5f6e616d65223a20220000000000000000000000000000000000600082015250565b6000612933600f83612851565b915061293e826128fd565b600f82019050919050565b7f222c000000000000000000000000000000000000000000000000000000000000600082015250565b600061297f600283612851565b915061298a82612949565b600282019050919050565b7f22766964656f5f75726c223a2022000000000000000000000000000000000000600082015250565b60006129cb600e83612851565b91506129d682612995565b600e82019050919050565b7f22766964656f5f7072696365223a202200000000000000000000000000000000600082015250565b6000612a17601083612851565b9150612a22826129e1565b601082019050919050565b60008160f81b9050919050565b6000612a4582612a2d565b9050919050565b612a5d612a5882612062565b612a3a565b82525050565b7f226d6f64756c655f6e756d626572223a20220000000000000000000000000000600082015250565b6000612a99601283612851565b9150612aa482612a63565b601282019050919050565b6000819050919050565b612aca612ac58261209b565b612aaf565b82525050565b7f226d6f64756c655f6e616d65223a202200000000000000000000000000000000600082015250565b6000612b06601083612851565b9150612b1182612ad0565b601082019050919050565b7f22636f757273655f6e616d65223a202200000000000000000000000000000000600082015250565b6000612b52601083612851565b9150612b5d82612b1c565b601082019050919050565b7f227d000000000000000000000000000000000000000000000000000000000000600082015250565b6000612b9e600283612851565b9150612ba982612b68565b600282019050919050565b6000612bbf826128da565b9150612bca82612926565b9150612bd6828961285c565b9150612be182612972565b9150612bec826129be565b9150612bf8828861285c565b9150612c0382612972565b9150612c0e82612a0a565b9150612c1a8287612a4c565b600182019150612c2982612972565b9150612c3482612a8c565b9150612c408286612ab9565b602082019150612c4f82612af9565b9150612c5b828561285c565b9150612c6682612972565b9150612c7182612b45565b9150612c7d828461285c565b9150612c8882612b91565b9150819050979650505050505050565b7f646174613a6170706c69636174696f6e2f6a736f6e3b6261736536342c000000600082015250565b6000612cce601d83612851565b9150612cd982612c98565b601d82019050919050565b6000612cef82612cc1565b9150612cfb828461285c565b915081905092915050565b7f45524337323155524953746f726167653a2055524920736574206f66206e6f6e60008201527f6578697374656e7420746f6b656e000000000000000000000000000000000000602082015250565b6000612d62602e83611e7d565b9150612d6d82612d06565b604082019050919050565b60006020820190508181036000830152612d9181612d55565b9050919050565b60008190508160005260206000209050919050565b60006020601f8301049050919050565b600082821b905092915050565b600060088302612dfa7fffffffffffffffffffffffffffffffffffffffffffffffffffffffffffffffff82612dbd565b612e048683612dbd565b95508019841693508086168417925050509392505050565b6000819050919050565b6000612e41612e3c612e378461209b565b612e1c565b61209b565b9050919050565b6000819050919050565b612e5b83612e26565b612e6f612e6782612e48565b848454612dca565b825550505050565b600090565b612e84612e77565b612e8f818484612e52565b505050565b5b81811015612eb357612ea8600082612e7c565b600181019050612e95565b5050565b601f821115612ef857612ec981612d98565b612ed284612dad565b81016020851015612ee1578190505b612ef5612eed85612dad565b830182612e94565b50505b505050565b600082821c905092915050565b6000612f1b60001984600802612efd565b1980831691505092915050565b6000612f348383612f0a565b9150826002028217905092915050565b612f4d82611e72565b67ffffffffffffffff811115612f6657612f65611f37565b5b612f70825461256c565b612f7b828285612eb7565b600060209050601f831160018114612fae5760008415612f9c578287015190505b612fa68582612f28565b86555061300e565b601f198416612fbc86612d98565b60005b82811015612fe457848901518255600182019150602085019450602081019050612fbf565b868310156130015784890151612ffd601f891682612f0a565b8355505b6001600288020188555050505b505050505050565b7f4552433732313a207472616e736665722066726f6d20696e636f72726563742060008201527f6f776e6572000000000000000000000000000000000000000000000000000000602082015250565b6000613072602583611e7d565b915061307d82613016565b604082019050919050565b600060208201905081810360008301526130a181613065565b9050919050565b7f4552433732313a207472616e7366657220746f20746865207a65726f2061646460008201527f7265737300000000000000000000000000000000000000000000000000000000602082015250565b6000613104602483611e7d565b915061310f826130a8565b604082019050919050565b60006020820190508181036000830152613133816130f7565b9050919050565b7f4552433732313a20617070726f766520746f2063616c6c657200000000000000600082015250565b6000613170601983611e7d565b915061317b8261313a565b602082019050919050565b6000602082019050818103600083015261319f81613163565b9050919050565b7f4552433732313a207472616e7366657220746f206e6f6e20455243373231526560008201527f63656976657220696d706c656d656e7465720000000000000000000000000000602082015250565b6000613202603283611e7d565b915061320d826131a6565b604082019050919050565b60006020820190508181036000830152613231816131f5565b9050919050565b7f4e487b7100000000000000000000000000000000000000000000000000000000600052601160045260246000fd5b60006132728261209b565b915061327d8361209b565b9250827fffffffffffffffffffffffffffffffffffffffffffffffffffffffffffffffff038211156132b2576132b1613238565b5b828201905092915050565b7f4e487b7100000000000000000000000000000000000000000000000000000000600052601260045260246000fd5b60006132f78261209b565b91506133028361209b565b925082613312576133116132bd565b5b828204905092915050565b60006133288261209b565b91506133338361209b565b9250817fffffffffffffffffffffffffffffffffffffffffffffffffffffffffffffffff048311821515161561336c5761336b613238565b5b828202905092915050565b60006133828261209b565b915061338d8361209b565b9250828210156133a05761339f613238565b5b828203905092915050565b600081519050919050565b600082825260208201905092915050565b60006133d2826133ab565b6133dc81856133b6565b93506133ec818560208601611e8e565b6133f581611ec1565b840191505092915050565b60006080820190506134156000830187612257565b6134226020830186612257565b61342f60408301856121ce565b818103606083015261344181846133c7565b905095945050505050565b60008151905061345b81611de3565b92915050565b60006020828403121561347757613476611dad565b5b60006134858482850161344c565b91505092915050565b7f4552433732313a206d696e7420746f20746865207a65726f2061646472657373600082015250565b60006134c4602083611e7d565b91506134cf8261348e565b602082019050919050565b600060208201905081810360008301526134f3816134b7565b9050919050565b7f4552433732313a20746f6b656e20616c7265616479206d696e74656400000000600082015250565b6000613530601c83611e7d565b915061353b826134fa565b602082019050919050565b6000602082019050818103600083015261355f81613523565b905091905056fe4142434445464748494a4b4c4d4e4f505152535455565758595a6162636465666768696a6b6c6d6e6f707172737475767778797a303132333435363738392b2fa2646970667358221220d05a12d026315ece95c312041234aaff894a779c730de98cbba529c1457b16d864736f6c634300080f0033",
  "immutableReferences": {},
  "source": "//SPDX-License-Identifier: UNLICENSED\n\npragma solidity ^0.8;\n\nimport \"@openzeppelin/contracts/token/ERC721/extensions/ERC721URIStorage.sol\";\nimport \"@openzeppelin/contracts/utils/Counters.sol\";\nimport \"@openzeppelin/contracts/utils/Base64.sol\";\n\ncontract TokenGating is ERC721URIStorage{\n    using Counters for Counters.Counter;\n    Counters.Counter public tokenId;\n    address payable contractAddress = payable(address(this));\n    address public owner;\n\n    mapping(uint256 => uint8) videoPrice;\n\n\n    constructor() ERC721 (\"Idea NFT\", \"DIP\"){\n        owner = msg.sender;\n    }\n\n    // encode the video metadata to base64 before setting it as tokenURI\n    function getTokenURI(\n        string memory _videoName, \n        string memory _videoUrl, \n        uint8 _videoPrice, \n        uint _moduleNumber, \n        string memory _moduleName, \n        string memory _courseName) private pure returns (string memory){\n\n        bytes memory dataURI = abi.encodePacked(\n            \"{\",\n            '\"video_name\": \"',\n            _videoName,\n            '\",',\n            '\"video_url\": \"',\n            _videoUrl,\n            '\",',\n            '\"video_price\": \"',\n            _videoPrice,\n            '\",',\n            '\"module_number\": \"',\n            _moduleNumber,\n            '\"module_name\": \"',\n            _moduleName,\n            '\",',\n            '\"course_name\": \"',\n            _courseName,\n            '\"'\n            \"}\"\n        );\n\n        return string(\n            abi.encodePacked(\n                \"data:application/json;base64,\",\n                Base64.encode(dataURI)\n            )\n        );\n    }\n    //@params video_number, video_name, video_data, module_number, module_name, course_name\n    //mint NFT for every video uploaded with author/tutor as the owner of the NFT\n    function createVideoNFT( \n        string memory _videoName, \n        string memory _videoUrl, \n        uint8 _videoPrice,\n        uint _moduleNumber, \n        string memory _moduleName, \n        string memory _courseName) public payable returns (uint256){\n\n        tokenId.increment();\n        uint256 newTokenId = tokenId.current();\n        _safeMint(msg.sender, newTokenId);\n        _setTokenURI(newTokenId, getTokenURI(_videoName,  _videoUrl, _videoPrice,  _moduleNumber,  _moduleName,  _courseName));\n        videoPrice[newTokenId] = _videoPrice;\n        return newTokenId;\n    }\n    \n}\n\n",
  "sourcePath": "/Users/shubham/DEP/dep-smart_contract/contracts/TokenGating.sol",
  "compiler": {
    "name": "solc",
    "version": "0.8.15+commit.e14f2714.Emscripten.clang"
  },
  "schemaVersion": "3.4.8",
  "updatedAt": "2023-01-31T15:10:47.444Z",
  "devdoc": {
    "kind": "dev",
    "methods": {
      "approve(address,uint256)": {
        "details": "See {IERC721-approve}."
      },
      "balanceOf(address)": {
        "details": "See {IERC721-balanceOf}."
      },
      "getApproved(uint256)": {
        "details": "See {IERC721-getApproved}."
      },
      "isApprovedForAll(address,address)": {
        "details": "See {IERC721-isApprovedForAll}."
      },
      "name()": {
        "details": "See {IERC721Metadata-name}."
      },
      "ownerOf(uint256)": {
        "details": "See {IERC721-ownerOf}."
      },
      "safeTransferFrom(address,address,uint256)": {
        "details": "See {IERC721-safeTransferFrom}."
      },
      "safeTransferFrom(address,address,uint256,bytes)": {
        "details": "See {IERC721-safeTransferFrom}."
      },
      "setApprovalForAll(address,bool)": {
        "details": "See {IERC721-setApprovalForAll}."
      },
      "supportsInterface(bytes4)": {
        "details": "See {IERC165-supportsInterface}."
      },
      "symbol()": {
        "details": "See {IERC721Metadata-symbol}."
      },
      "tokenURI(uint256)": {
        "details": "See {IERC721Metadata-tokenURI}."
      },
      "transferFrom(address,address,uint256)": {
        "details": "See {IERC721-transferFrom}."
      }
    },
    "version": 1
  },
  "userdoc": {
    "kind": "user",
    "methods": {},
    "version": 1
  }
}